:020000040800F2
:10000000A0060020B92000080D1000080F100008FD
:1000100013100008171000081B1000080000000053
:100020000000000000000000000000001F10000899
:10003000211000080000000023100008251000080F
:10004000D3200008D3200008D3200008D3200008C4
:10005000D3200008D3200008D3200008D3200008B4
:10006000D3200008D3200008D3200008D3200008A4
:10007000D3200008D3200008D3200008D320000894
:10008000D3200008D3200008D3200008D320000884
:10009000D3200008D3200008D3200008D320000874
:1000A000D3200008D3200008D3200008D320000864
:1000B000D3200008011A00089F190008D320000867
:1000C000D3200008D3200008D3200008D320000844
:1000D000D3200008151C0008311D0008D32000089B
:1000E000D3200008D3200008D3200008D320000824
:1000F000D3200008D3200008D3200008D320000814
:10010000D3200008D3200008D3200008D320000803
:10011000791E0008D3200008D3200008D32000084F
:10012000D3200008D3200008D3200008D3200008E3
:10013000DFF80CD004F030FA00480047E104000872
:10014000A00600202DE9FE4F1E21012001F0BBFB7F
:100150000290029804F00EF8009004F024F806468D
:100160004FF06632FE4B03F024FF04460022FD4BA5
:1001700003F091FF804604F059F80190019804F0D3
:1001800012F8044622460B46F7A004F049FAF94952
:10019000019803F0DCFE044603F0F1FF1FFA80FB38
:1001A000BBF1C80F02DC4FF0000A03E0ABF1C8005E
:1001B0001FFA80FA0AF0FF020AF0FF010AF0FF00BE
:1001C00001F073F9BDE8FE8F10B51021EA4802F086
:1001D00078F8D0B913E0601C84B2642001F089FC87
:1001E0000F2C0CDD4021E54802F0AFFCE4A1E34810
:1001F00001F0DFFEFF221146002001F056F9102128
:10020000DD4802F05EF80028E5D010BD70B5F0259D
:1002100000262CE0002409E022462146204601F079
:1002200044F9142001F065FCA01CC4B2AC42F3DD1B
:100230004FF4FA6001F05DFC2C4609E022462146AD
:10024000204601F032F9142001F053FCA01EC4B284
:10025000042CF3DA00221146104601F026F94FF47F
:10026000FA6001F046FCA81EC5B2701CC6B2782E1A
:10027000D0DB70BD2DE9F041C648008800F4004095
:10028000002879D0C3480478C34890F804800078E7
:100290004C2804D10020C1490860FFF7B7FFBE48D1
:1002A00000786C2804D10120BC490860FFF7AEFF3C
:1002B000B948007844280DD10020B849091F0860CA
:1002C000FF221146104601F0F0F801221146B44811
:1002D00003F069FBB0480078642803D10120AF49DE
:1002E000091F0860AC480078472842D1AA484078E6
:1002F00052283ED1A848807842283AD1A648C078F2
:10030000303864214843A4490979303901EB81012F
:1003100000EB4101A048407930380844C7B29E48FC
:1003200080793038642148439B49C979303901EBE1
:10033000810100EB41019848007A30380844C5B289
:100340009548407A3038642148439349897A303956
:1003500001EB810100EB41018F48C07A303808443D
:10036000C6B232462946384601F09FF800270025DC
:100370000026002087490880BDE8F0812DE9F04182
:100380008848008800F4004000287DD08548047823
:10039000854890F80480007A4C2816D100208349C3
:1003A00008700A2001F0A5FB2D2232213C2001F02B
:1003B0007CF80A2001F09DFB01217D4803F0D8FA6A
:1003C000012211467A4803F0EEFA7748007A6C2849
:1003D00009D100220121764803F0E5FA00221146F6
:1003E000104601F062F87048007A4D2802D10120D1
:1003F0006E4908706C48007A6D2802D100206B4964
:1004000008706948007A44280DD100206349091F0B
:100410000860FF221146104601F047F801221146FC
:100420005F4803F0C0FA6048007A642803D10120D5
:100430005A49091F08605C48407A472847D15A4802
:10044000807A522843D15848C07A42283FD10020B0
:10045000564908705448007B30386421484352495B
:10046000497B303901EB810100EB41014E48807B33
:1004700030380844C7B24C48C07B30386421484308
:100480004949097C303900E028E001EB810100EBAB
:1004900041014548407C30380844C5B24248807C20
:1004A0003038642148434049C97C303901EB81012F
:1004B00000EB41013C48007D30380844C6B232466A
:1004C0002946384600F0F1FF0027002500260020CD
:1004D00034490880C821344803F02EFDBDE8F0817E
:1004E00000BF01F0C9FA01F095F901F05FF901F0E0
:1004F00074F901F01BF901F029FB41F61F4141F2AB
:10050000873001F023FA4FF4165001F034FB4FF41A
:10051000165001F0BCFB002026490860002211465D
:10052000104600F0C2FF4FF47A7001F0E2FA0022A8
:100530001146104600F0B9FF052001F0DAFA00F08C
:10054000CCFF01F012F840210C4802F0FEFA1AA18B
:100550000A4801F02EFD01F008F84021074833E079
:1005600066660A400000B0404144433A252E326698
:100570000D0A00000000C842001001400044004085
:1005800041542B4357534D41525453544152543DBF
:10059000310D0A002C00002048000020A401224256
:1005A000000400402E000020100100200200002066
:1005B00000080040A001214241542B4349504D55B1
:1005C000583D310D0A00000002F0BFFAF8A1FE48C4
:1005D00001F0EFFC05221146104600F066FF4FF4D3
:1005E000FA7001F086FA302300221146104600F01E
:1005F00044FF0020F54908701EE0FFF7BFFEFFF73B
:1006000039FE002001F0A6F80446012C05D1002295
:100610001146104600F049FF06E0022C04D10022EA
:10062000FF21104600F041FFFFF7CEFDE7480078BC
:10063000012801D1FFF786FDDFE710B50022114642
:10064000FF2000F032FF4FF4967001F052FA0022C2
:10065000FF21104600F029FF4FF4967001F049FA8F
:10066000FF220021084600F020FF4FF4967001F0B1
:1006700040FAFF221146104600F017FF4FF4967023
:1006800001F037FA00221146104600F00EFF4FF439
:10069000967001F02EFAFF221146104600F005FF79
:1006A0004FF4967001F025FA00221146104600F032
:1006B000FCFE10BD10B50020C5490860C82001F03F
:1006C00018FA0120C349C1F8A0010020C2490860FE
:1006D000C82001F00EFA0120BF4908600020091F60
:1006E0000860C82001F005FA0120BB49091F086015
:1006F0000020BA49C1F89C01C82001F0FAF9012094
:10070000B549083908600020B449C1F8A001C820E3
:1007100001F0EFF90120B049091F08600020AF493E
:10072000C1F8A401C82001F0E4F90120AA49086039
:100730000020A849C1F8A001C82001F0DAF9012081
:10074000A449C1F8A00110BD2DE9F0470A210420F9
:1007500001F0B9F80446204603F00CFD824603F090
:1007600022FD07464FF066329D4B03F022FC054602
:1007700003F05CFD8146484603F001FD84B2484623
:1007800003F011FD05462A460B4696A003F048FFEC
:10079000484603F008FD05464FF06632934B03F0E0
:1007A0002DFD02D292A003F03BFF484603F0FBFC74
:1007B00005464FF06632904B03F020FD0CD24846C0
:1007C00003F0F1FC05464FF06632884B03F0FEFC67
:1007D00002D28AA003F024FF484603F0E4FC054659
:1007E0004FF03332874B03F009FD0CD2484603F03B
:1007F000DAFC05464FF066327F4B03F0E7FC02D28D
:1008000081A003F00DFF484603F0CDFC0546002211
:100810007F4B03F0F3FC0CD2484603F0C4FC0546C2
:100820004FF03332774B03F0D1FC02D279A003F0C2
:10083000F7FE484603F0B7FC05460022774B03F06D
:10084000DDFC0BD2484603F0AEFC05460022704B9F
:1008500003F0BCFC02D272A003F0E2FEBDE8F08718
:1008600010B5002409E022462146204600F01DFE76
:10087000142001F03EF9601DC4B2F02CF3DD4FF4FA
:10088000FA6001F036F9F02409E0224621462046BC
:1008900000F00BFE142001F02CF9601FC4B2052CEF
:1008A000F3DA00221146104600F0FFFD4FF4FA6023
:1008B00001F01FF910BD10B5FF221146104600F0DF
:1008C000F4FD002405E04FF47A7001F012F9601C89
:1008D00084B23C2CF7DB00221146104600F0E5FD07
:1008E00010BD10B5002428E0642C07DC002211465E
:1008F000204600F0DAFD142001F0FBF8C82C0BDCD8
:10090000642C09DDA4F16400C1B20022204600F08D
:10091000CCFD142001F0EDF8FA2C0CDAC82C0ADD1D
:10092000A4F1C800C2B26430C1B2204600F0BDFDDF
:10093000142001F0DEF8A01CC4B2FA2CD4DB4FF472
:10094000FA6001F0D6F8FA242AE0FA2C0CDAC82C66
:100950000ADBA4F1C800C2B26430C1B2204600F084
:10096000A4FD142001F0C5F8C82C0BDA642C09DBB7
:10097000A4F16400C1B20022204600F096FD1420CC
:1009800001F0B7F8642C09DA042C07DB00221146C9
:10099000204600F08AFD142001F0ABF8A01EC4B27E
:1009A000022CD2DA00221146104600F07EFD3BE018
:1009B00041542B4349505345525645523D312C38F2
:1009C0003038300D0A0000000044004002000020D2
:1009D000A001214200002142A40122420000224243
:1009E00066664A3F2025660D0A00000066660040E4
:1009F000203130300D0A00006666FE3F2037350D8D
:100A00000A0000003333FB3F2035300D0A000000A0
:100A10000000F83F2032350D0A0000000000F63FCC
:100A200020300D0A000000004FF4FA6001F061F878
:100A300010BD10B500221146104600F036FD3220E0
:100A400001F057F80F221146104600F02EFD32201B
:100A500001F04FF81E221146104600F026FD32200C
:100A600001F047F82D221146104600F01EFD3220FD
:100A700001F03FF83C221146104600F016FD3220EE
:100A800001F037F84B221146104600F00EFD3220DF
:100A900001F02FF85A221146104600F006FD3220D0
:100AA00001F027F869221146104600F0FEFC3220C2
:100AB00001F01FF878221146104600F0F6FC3220B3
:100AC00001F017F887221146104600F0EEFC3220A4
:100AD00001F00FF896221146104600F0E6FC322095
:100AE00001F007F8A5221146104600F0DEFC322086
:100AF00000F0FFFFB4221146104600F0D6FC322071
:100B000000F0F7FFC3221146104600F0CEFC322061
:100B100000F0EFFFD2221146104600F0C6FC322052
:100B200000F0E7FFE1221146104600F0BEFC322043
:100B300000F0DFFFF0221146104600F0B6FC322034
:100B400000F0D7FFFF221146104600F0AEFC4FF434
:100B50007A7000F0CEFFF0221146104600F0A5FC9E
:100B6000322000F0C6FFE1221146104600F09DFC45
:100B7000322000F0BEFFD2221146104600F095FC54
:100B8000322000F0B6FFC3221146104600F08DFC63
:100B9000322000F0AEFFB4221146104600F085FC72
:100BA000322000F0A6FFA5221146104600F07DFC81
:100BB000322000F09EFF96221146104600F075FC90
:100BC000322000F096FF87221146104600F06DFC9F
:100BD000322000F08EFF78221146104600F065FCAE
:100BE000322000F086FF69221146104600F05DFCBD
:100BF000322000F07EFF5A221146104600F055FCCC
:100C0000322000F076FF4B221146104600F04DFCDA
:100C1000322000F06EFF3C221146104600F045FCE9
:100C2000322000F066FF2D221146104600F03DFCF8
:100C3000322000F05EFF1E221146104600F035FC07
:100C4000322000F056FF0F221146104600F02DFC16
:100C5000322000F04EFF00221146104600F025FC25
:100C600010BD10B54021C24801F06FFFC1A1C048BE
:100C700001F09FF9052000F03CFF0020C149086009
:100C80004FF47A7000F035FF0120BF49C1F8A00190
:100C90004FF47A7000F02DFF4021B54801F055FF68
:100CA000BAA1B34801F085F9052000F022FF002029
:100CB000B44908604FF47A7000F01BFF0120B2497C
:100CC000C1F8A0014FF47A7000F013FF0020AD4985
:100CD00008604FF47A7000F00CFF0020AA49C1F8B8
:100CE000A0014FF47A7000F004FF0120A649C1F87A
:100CF000A0014FF47A7000F0FCFE0020A249C1F878
:100D0000A0014FF47A7000F0F4FE4021984801F001
:100D10001CFFA1A1964801F04CF9052000F0E9FE66
:100D200000209949C1F8A0014FF47A7000F0E1FE6B
:100D300001209549C1F8A0014FF47A7000F0D9FE66
:100D400040218B4801F001FFAFF29471884801F017
:100D500030F9052000F0CDFE00208B49C1F8A0013C
:100D60004FF47A7000F0C5FE01208749C1F8A00158
:100D70004FF47A7000F0BDFE40217D4801F0E5FEA1
:100D8000AFF2D4317A4801F014F9642000F0B1FEDA
:100D900000207D49C1F8A0014FF47A7000F0A9FE4F
:100DA00001207949C1F8A0014FF47A7000F0A1FE4A
:100DB00040216F4801F0C9FE81A16D4801F0F9F8AA
:100DC000642000F096FE00206F49C1F8A0014FF4A6
:100DD0007A7000F08EFE01206B49C1F8A0014FF43B
:100DE0007A7000F086FE10BD10B54021604801F019
:100DF000ACFE60A15E4801F0DCF8052000F079FE51
:100E00000020604908604FF47A7000F072FE012003
:100E10005D49C1F8A0014FF47A7000F06AFE4021EC
:100E2000534801F092FE59A1514801F0C2F8052043
:100E300000F05FFE0020534908604FF47A7000F024
:100E400058FE01205049C1F8A0014FF47A7000F01B
:100E500050FE00204B4908604FF47A7000F049FEC4
:100E600000204949C1F8A0014FF47A7000F041FE1A
:100E700001204549C1F8A0014FF47A7000F039FE15
:100E800000204149C1F8A0014FF47A7000F031FE12
:100E90004021374801F059FE4EA1354801F089F84C
:100EA000052000F026FE00203749C1F8A0014FF4CC
:100EB0007A7000F01EFE01203349C1F8A0014FF402
:100EC0007A7000F016FE4021294801F03EFEAFF690
:100ED0001811274801F06DF8052000F00AFE0020E7
:100EE0002949C1F8A0014FF47A7000F002FE0120F8
:100EF0002549C1F8A0014FF47A7000F0FAFD4021B5
:100F00001B4801F022FEAFF25851194801F051F888
:100F1000642000F0EEFD00201B49C1F8A0014FF451
:100F20007A7000F0E6FD01201749C1F8A0014FF4E6
:100F30007A7000F0DEFD40210D4801F006FE2FA181
:100F40000B4801F036F8642000F0D3FD00200E4974
:100F5000C1F8A0014FF47A7000F0CBFD01200A49DE
:100F6000C1F8A0014FF47A7000F0C3FD10BD00007D
:100F7000004C004041542B43574D4F44453D330DE9
:100F80000A000000A00121420000214241542B52DE
:100F900053540D0A0000000041542B435753415055
:100FA0003D227169616F6A696A756E222C22313245
:100FB00033343536373839222C31312C330D0A0091
:100FC00041542B43495053544F3D323838300D0A69
:100FD0000000000041542B43575341503D22514AD9
:100FE0004A32303231222C223230313530373033F0
:100FF000222C31312C330D0A0000000041542B43C8
:10100000495053544F3D300D0A000000704700BF57
:10101000FEE700BFFEE700BFFEE700BFFEE7704748
:1010200070477047704700000CB500200190009099
:101030006C48006840F480306A49086000BF694825
:10104000006800F4003000900198401C0190009866
:1010500018B90198B0F5A06FF1D16248006800F4AA
:10106000003010B10120009001E0002000900098B5
:10107000012843D15C48006840F010005A490860DC
:101080000846006820F0030008600846006840F049
:10109000020008605348406852494860084640686A
:1010A00048600846406840F48060486008464068F0
:1010B00020F47C1048600846406840F4E81048601E
:1010C0000846006840F08070086000BF454800682E
:1010D00000F000700028F9D04248406820F003007A
:1010E000404948600846406840F00200486000BF40
:1010F0003C48406800F00C000828F9D10CBD10B540
:10110000FFF792FF10BD10B53648006840F00100AF
:10111000344908600846406834490840314948600D
:1011200008460068324908402E49086008460068B1
:1011300020F4802008600846406820F4FE004860E3
:101140004FF41F008860FFF7DAFF4FF00060294975
:10115000086010BD10B5002100200022214B5B6803
:1011600003F00C0121B1042906D0082928D107E099
:10117000214B224C236027E01F4B204C236023E0AF
:10118000184B5B6803F47010164B5B6803F48032F5
:10119000022303EB904022B9194B4343174C2360C1
:1011A0000DE0104B5B6803F4003323B1144B434351
:1011B000124C236003E0104B4343104C236003E0C8
:1011C0000D4B0E4C236000BF00BF064B5B68C3F3A2
:1011D00003130C4CE15C094B1B68CB40074C2360AC
:1011E00010BD000000100240002002400000FFF887
:1011F000FFFFF6FE08ED00E000127A000400002078
:1012000000093D00080000200021FC4A1160012176
:10121000FB4AC2F88811002004E00121F74A11605E
:10122000411CC8B2C328F8DB70470120F3490860AD
:10123000F349C1F88801F14908600020086008609E
:101240000860086008600860086008607047012056
:10125000EA490860EA49C1F88801E849086008607D
:101260000860086008600020086008600860086086
:10127000704730B503460C46154600220CE00120AD
:10128000B0EBD31F02D1FFF7E2FF01E0FFF7CDFF84
:101290005806030E501CC2B2082AF0DB00220CE0F4
:1012A0000120B0EBD41F02D1FFF7D1FF01E0FFF71F
:1012B000BCFF6006040E501CC2B2082AF0DB0022FC
:1012C0000CE00120B0EBD51F02D1FFF7C0FF01E019
:1012D000FFF7ABFF6806050E501CC2B2082AF0DB10
:1012E0000020C649086030BD10B5002406E0002289
:1012F0001146FF20FFF7BDFF601CC4B2082CF6DBCF
:10130000002406E00022FF211046FFF7B2FF601C18
:10131000C4B2082CF6DB002406E0FF2200210846B8
:10132000FFF7A7FF601CC4B2082CF6DBFFF76CFFC9
:101330000020B249086010BD10B5002413E020461B
:1013400004EBD0714910A4EB410129B900221146E8
:10135000FF20FFF78EFF04E0002211461046FFF742
:1013600088FF601CC4B2082CE9DB002413E020468F
:1013700004EBD0714910A4EB410129B90022FF21EF
:101380001046FFF776FF04E0002211461046FFF7F3
:1013900070FF601CC4B2082CE9DB002413E0204677
:1013A00004EBD0714910A4EB410129B9FF220021BF
:1013B0000846FFF75EFF04E0002211461046FFF7E3
:1013C00058FF601CC4B2082CE9DBFFF71DFF0020AA
:1013D0008A49086010BD10B5002414E0204604EBD3
:1013E000D0714910A4EB4101012905D10022114619
:1013F000FF20FFF73EFF04E0002211461046FFF7F2
:1014000038FF601CC4B2082CE8DB002414E020463E
:1014100004EBD0714910A4EB4101012905D1002250
:10142000FF211046FFF725FF04E000221146104679
:10143000FFF71FFF601CC4B2082CE8DB002414E097
:10144000204604EBD0714910A4EB4101012905D1DC
:10145000FF2200210846FFF70CFF04E0002211469E
:101460001046FFF706FF601CC4B2082CE8DBFFF74C
:10147000CBFE00206149086010BD2DE9F041064611
:101480000F4690461C46002506E042463946304647
:10149000FFF7EFFE681CC5B2A542F6DBFFF7B4FE0E
:1014A000002056490860BDE8F081F0B505460E46BB
:1014B0001746002051490860002406E03A463146AC
:1014C0002846FFF7D6FE601CC4B2182CF6DBFFF7E7
:1014D0009BFE002049490860F0BD70B5022541E03F
:1014E000002432E0002606E0002211461046FFF7F5
:1014F000C0FE701CC6B2A642F6DD0222114610469E
:10150000FFF7B7FE052211461046FFF7B2FE0A228A
:1015100011461046FFF7ADFE0F2211461046FFF7A9
:10152000A8FE142211461046FFF7A3FE1922114609
:101530001046FFF79EFEFFF767FE01202F49086067
:10154000642000F0D6FA601CC4B2112CCADB002261
:1015500011461046FFF7A9FF4FF47A7000F0C9FA60
:10156000681EC5B2002DBBDC70BD70B5002432E032
:10157000002507E00022234801780078FFF779FE74
:10158000681CC5B2A542F5DB254608E01E48027876
:101590001C4801780020FFF76CFE681CC5B204F1FE
:1015A0000C00A842F2DCC5B207E000221548017821
:1015B0000078FFF75EFE681CC5B204F11800A8426F
:1015C000F3DCFFF721FE00200C490860322000F018
:1015D00090FA601CC4B20C2CCADB00243BE000254E
:1015E00008E009480278074801780020FFF741FE2B
:1015F000681CC5B2A542F4DB25460FE08881224273
:1016000000802242180000201900002000224448D7
:1016100001780078FFF72DFE681CC5B204F10C00BC
:10162000A842F3DCC5B208E03E4802783C480178A5
:101630000020FFF71EFE681CC5B204F11800A84286
:10164000F2DCFFF7E1FD002037490860322000F0AE
:1016500050FA601CC4B20C2CC1DB31480078401D2C
:101660002F4908702F480078C01D2E49087070BDA2
:1016700010B500240AE02346FF227D210020FFF759
:10168000FCFE322000F035FA601CC4B2302CF2DBD4
:1016900010BD00B5002203E0FFF7D9FD501CC2B217
:1016A000082AF9DB002203E0FFF7BFFD501CC2B29D
:1016B000102AF9DB00BD00B5002203E0FFF7B5FDFD
:1016C000501CC2B2082AF9DB002203E0FFF7BFFD7D
:1016D000501CC2B2082AF9DB002203E0FFF7A5FD87
:1016E000501CC2B2082AF9DB00BD00B5002203E09D
:1016F000FFF79BFD501CC2B2082AF9DB002203E071
:10170000FFF793FD501CC2B2082AF9DB002203E068
:10171000FFF79DFD501CC2B2082AF9DB00BD000096
:1017200018000020190000208881224208B50121FC
:10173000102000F0EFFF0121194800F000FE3020DA
:10174000ADF8000048208DF803006946154800F008
:1017500025FD08BD10B5044614B1012012490870DA
:101760001021104800F0ADFD20B120210D4800F0FF
:10177000A8FD98B90A2000F0BCF900200A490870B9
:101780001021084800F09DFD08B9012010BD20215E
:10179000044800F096FD08B90220F7E70020F5E7BD
:1017A00000023000001001401A00002008B501219D
:1017B000202000F0AFFF0420ADF8000010208DF8CD
:1017C000030003208DF802006946104800F0E6FC93
:1017D00004210E4800F091FD08BD08B50121042048
:1017E00000F098FF4FF48070ADF8000010208DF8E5
:1017F000030003208DF802006946054800F0CEFC86
:101800004FF48071024800F078FD08BD00140140DB
:101810000008014000B587B001214FF4017000F0CD
:1018200079FF4FF4004000F0D9FE0220ADF804002B
:1018300000208DF8070001A92E4800F0AFFC2E48CB
:1018400001F03EFA002002908DF80C008DF80D009A
:101850004FF4602004900020059001208DF81800BE
:1018600002A9254801F053FA0121234801F07BFA2F
:10187000214801F09AFA00BF1F4801F09BFA0028A6
:10188000FAD11D4801F0A0FA00BF1B4801F0A1FAEF
:101890000028FAD107B000BD10B504460723012285
:1018A0002146154801F0CBFA0121134801F09BFABB
:1018B00000BF0221104801F007FC0028F9D00E48B3
:1018C00001F024FB10BD2DE9F04107460C46002530
:1018D000002608E03846FFF7DFFF0544052000F04A
:1018E00008F9701CC6B2A642F4DBB5FBF4F080B276
:1018F000BDE8F08100080140002401407FB50546A5
:101900000C460121022000F012FFADF80850ADF89E
:1019100004400020ADF80A00ADF8060001A95048C7
:1019200001F0CAFC1D208DF8000002208DF8010096
:1019300004208DF8020001208DF80300684601F0B4
:1019400056F90121464802F013F87FBD7FB50546E0
:101950000C460121042000F0EAFEADF80850ADF875
:1019600004400020ADF80A00ADF8060001A93D488A
:1019700001F0A2FC012211463A4802F014F81E20A0
:101980008DF8000003208DF8010005208DF802007D
:1019900001208DF80300684601F029F97FBD10B5DC
:1019A0000121304802F0ADFA48B301212D4802F080
:1019B000B9FA2D480088401C2B490880088800EBA4
:1019C000D0714910A0EB410139B92848006808B925
:1019D000012000E000202549086023480088B0F578
:1019E000967F0CDD00202049088000221146104619
:1019F000FFF75BFD002201211A4801F0D4FF10BD62
:101A000010B50121164802F07CFA40B301211448B8
:101A100002F088FA16480088401C1549088008889A
:101A200000EBD0714910A0EB410139B911480068B1
:101A300008B9012000E000200E4908600C48008829
:101A4000F0280CD100200A490880002211461046D7
:101A5000FFF72BFD00220121014801F0A4FF10BD7A
:101A600000040040000800401E000020A0012142A8
:101A7000200000209C01224210B56FF0040001F00C
:101A800000F92E4800682E49B0FBF1F02D4908708E
:101A90000846007800EB4001C1EBC0104FF6FF7123
:101AA00001EAC0002849088010BD0146254A127885
:101AB0004A434FF0E0235A6100229A611A461269A4
:101AC00042F001021A6100BF4FF0E022106900F0FD
:101AD00001021AB100F48032002AF5D04FF0E02262
:101AE000126922F001024FF0E0231A6100229A618C
:101AF00070470146144A12884A434FF0E0235A6166
:101B000000229A611A46126942F001021A6100BF6E
:101B10004FF0E022106900F001021AB100F48032A7
:101B2000002AF5D04FF0E022126922F001024FF0B6
:101B3000E0231A6100229A6170470000040000202F
:101B400000127A00220000202400002010B54FF47B
:101B5000A06001F047F810BD014600BF704700BF0C
:101B6000F84A128802F04002002AF9D0C2B2F54BBE
:101B70001B1D1A80704710B586B00446012144F23F
:101B8000040000F0C7FDEF4800F028FE4FF400709D
:101B9000ADF8140003208DF8160018208DF81700FA
:101BA00005A9E94800F0FAFA4FF48060ADF8140096
:101BB00004208DF8170005A9E34800F0EFFA25206E
:101BC0008DF8000003208DF801008DF8020001203F
:101BD0008DF80300684601F00AF801940020ADF882
:101BE0000800ADF80A00ADF80C00ADF810000C20AC
:101BF000ADF80E0001A9D34800F033FE012240F2F7
:101C00002551D04800F0C5FE0121CE4800F0B5FEB8
:101C100006B010BD10B540F22551CA4800F09EFF35
:101C200010B3C84800F01AFFC4B2C848008800F4D6
:101C30000040C8B9C548008800F4804060B10A2C53
:101C400003D00020C149088020E0C048008840F44B
:101C50000040BE49088019E00D2C06D1BB48008821
:101C600040F48040B949088010E0B8480088C0F3CB
:101C70000D00B7490C54B5480088401CB349088092
:101C800008460088C72801DD0020088010BD10B577
:101C900086B004460121480400F049FD01210420DA
:101CA00000F038FDAB4800F099FD0420ADF81400B9
:101CB00003208DF8160018208DF8170005A9A248FA
:101CC00000F06CFA0820ADF8140004208DF817001D
:101CD00005A99D4800F062FA26208DF80000022038
:101CE0008DF8010003208DF8020001208DF803001B
:101CF000684600F07CFF01940020ADF80800ADF8C4
:101D00000A00ADF80C00ADF810000C20ADF80E0084
:101D100001A9904800F0A5FD012240F225518D480F
:101D200000F037FE01218B4800F027FE06B010BD01
:101D300010B540F22551874800F010FF002847D029
:101D4000844800F08BFEC4B28348008800F4004051
:101D500000283DD18148007858B92B2C38D101207A
:101D60007E4908707C480088C0F30D007C490C5403
:101D70002EE07948008800F4804078B10A2C03D026
:101D800000207549088023E00020744908707248DB
:101D9000008840F400407049088019E00D2C06D1FD
:101DA0006D48008840F480406B49088010E06A4824
:101DB0000088C0F30D006A490C5467480088401C35
:101DC0006549088008460088C72801DD0020088092
:101DD00010BD10B586B004460121C80400F0A7FC70
:101DE0000121102000F096FC5E4800F0F7FC4FF453
:101DF0008060ADF8140003208DF8160018208DF8CF
:101E0000170005A9584800F0C9F94FF40060ADF873
:101E1000140004208DF8170005A9534800F0BEF9FE
:101E200034208DF8000004208DF8010005208DF885
:101E3000020001208DF80300684600F0D8FE0194EE
:101E40000020ADF80800ADF80A00ADF80C00ADF8C0
:101E500010000C20ADF80E0001A9424800F001FD71
:101E6000012240F225513F4800F093FD01213D48F9
:101E700000F083FD06B010BD10B540F22551394881
:101E800000F06CFE002847D0364800F0E7FDC4B2F1
:101E90003648008800F4004000283DD134480078DE
:101EA00058B92B2C38D10120314908702F480088AF
:101EB000C0F30D002F490C542EE02C48008800F48C
:101EC000804078B10A2C03D000202849088023E004
:101ED0000020274908702548008840F40040234925
:101EE000088019E00D2C06D12048008840F480407D
:101EF0001E49088010E01D480088C0F30D001D49F0
:101F00000C541A480088401C18490880084600886C
:101F1000C72801DD0020088010BDF0B503460D463E
:101F20001646002729460A2E03D0002008702846AE
:101F3000F0BD33B9302001F8010B002008702846AD
:101F4000F6E719E000380140000801402C000020AD
:101F500048000020004400402E00002032000020F5
:101F600010010020004C0040001001403000002013
:101F700033000020D8010020002B03DA2D2001F8C7
:101F8000010B5B4242F210720DE093FBF2F404B9D4
:101F900037B104F1300001F8010B04FB12330127C3
:101FA0000A2092FBF0F2002AEFDC0020087028469D
:101FB000BEE70FB470B586B006460CA8019073E07A
:101FC0000B9800785C281CD10B98401C0B90007873
:101FD0006E2809D072280FD10D21304600F03AFD4D
:101FE0000B98401C0B900BE00A21304600F032FDAC
:101FF0000B98401C0B9003E00B98401C0B9000BF0B
:102000004BE00B980078252840D10B98401C0B9092
:102010000078642818D0732833D1019810C8019033
:102020000BE02178304600F015FD00BF402130461E
:1020300000F07EFD0028F9D0641C20780028F0D143
:102040000B98401C0B9020E0019820C801900A22B8
:1020500002A92846FFF761FF02AC0BE02178304669
:1020600000F0F8FC00BF4021304600F061FD002880
:10207000F9D0641C20780028F0D10B98401C0B90FC
:1020800003E00B98401C0B9000BF06E00B9810F883
:10209000011B0B90304600F0DDFC00BF40213046B4
:1020A00000F046FD0028F9D00B980078002887D171
:1020B00006B070BC5DF814FB064880470648004730
:1020C000FEE7FEE7FEE7FEE7FEE7FEE7FEE7FEE7E8
:1020D000FEE7FEE7071100083101000810B50446CD
:1020E000CC48844208D10121042000F02DFB0021BE
:1020F000042000F029FB46E0C748844208D10121B2
:10210000082000F021FB0021082000F01DFB3AE030
:10211000C248844208D10121102000F015FB0021A3
:10212000102000F011FB2EE0BD48844208D10121AF
:10213000202000F009FB0021202000F005FB22E018
:10214000B848844208D10121402000F0FDFA002166
:10215000402000F0F9FA16E0B348844208D101218A
:10216000802000F0F1FA0021802000F0EDFA0AE072
:10217000AE48844207D10121801500F0E5FA002124
:10218000A01500F0E1FA10BD10B50121084600F0DD
:10219000DBFA0021012000F0D7FA10BD2DE9F04153
:1021A000024600250026002000230024002791F885
:1021B00003C00CF00F0591F803C00CF0100CBCF13B
:1021C000000F03D091F802C04CEA050591F800C059
:1021D000BCF1000F31D0146800202BE04FF0010C4F
:1021E0000CFA00F3B1F800C00CEA03069E4220D1BD
:1021F00083004FF00F0C0CFA03F7BC4305FA03FC05
:102200004CEA040491F803C0BCF1280F06D14FF04A
:10221000010C0CFA00FCC2F814C00AE091F803C0EB
:10222000BCF1480F05D14FF0010C0CFA00FCC2F8CC
:1022300010C0401C0828D1D31460B1F800C0BCF114
:10224000FF0F34DD546800202EE000F1080C4FF041
:10225000010808FA0CF3B1F800C00CEA03069E422C
:1022600021D183004FF00F0C0CFA03F7BC4305FAA1
:1022700003FC4CEA040491F803C0BCF1280F05D11B
:1022800000F1080C08FA0CF8C2F8148091F803C0A9
:10229000BCF1480F07D100F1080C4FF0010808FA13
:1022A0000CF8C2F81080401C0828CED35460BDE85A
:1022B000F0814FF6FF710180022181700421C1700D
:1022C00070470246002093680B400BB1012000E0EC
:1022D000002070470146886880B27047024600209F
:1022E000D3680B400BB1012000E00020704701468D
:1022F000C86880B2704701617047416170470AB198
:10230000016100E041617047C16070474FF4803265
:102310000A438261816182618269826970470246F3
:102320000020434B18684FF68073184040EA0210B3
:1023300008433F4B186070473E49C8617047F0B58D
:102340000A46002300240021002500F00046B6F1D3
:10235000004F02D1364EF16901E0354E7168C0F38D
:10236000034583B200F44016B6F5401F08D121F0B2
:1023700070612F4E766826F070662D4F7E6012E0F9
:1023800000F48016B6F5801F06D1032606FA05F480
:10239000A14341F0706106E0460D360103FA06F6EE
:1023A000B14341F0706122B1460D360103FA06F6E1
:1023B000314300F00046B6F1004F02D11C4EF161EE
:1023C00001E01B4E7160F0BD30B500228B071C0F81
:1023D0000F2303FA04F2164B08338C1053F8243001
:1023E0009343134C08348D1044F8253023468C1049
:1023F00053F824308C07240F00FA04F423430C4CC8
:1024000008348D1044F8253030BD0A49DC310860AD
:102410007047000000080140000C0140001001401E
:102420000014014000180140001C01400020014040
:102430000000014000002042DF48006840F0010039
:10244000DD49086008464068DC490840DA494860D0
:1024500008460068DA490840D7490860084600681D
:1024600020F4802008600846406820F4FE004860A0
:102470004FF41F0088607047CF49096821F480310C
:10248000CD4A11601146096821F480211160B0F530
:10249000803F03D0B0F5802F0ED106E0C649096811
:1024A00041F48031C44A116007E0C349096841F42E
:1024B000A021C14A116000E000BF00BF704710B505
:1024C00001460022002300204A11012A02D1BA4C01
:1024D000236806E0022A02D1B74C236A01E0B64C19
:1024E000636A01F01F02012494401C400CB10120DA
:1024F00000E0002010BD38B5002000900024002529
:1025000000BF3120FFF7DBFF05460098401C00901C
:102510000098B0F5A06F01D0002DF2D03120FFF768
:10252000CEFF08B1012400E00024204638BD01465A
:102530000020A14A106820F0F80040EAC1001060B5
:102540007047A04908607047024600209A4B5868BF
:1025500020F47C1042EA01031843974B58607047FF
:1025600098490866704701460020934A506820F059
:1025700003000843506070478F48406800F00C002B
:102580007047014600208C4A506820F0F000084354
:102590005060704701460020874A506820F4E06090
:1025A00008435060704701460020834A506820F479
:1025B000605040EAC1005060704729B17E4A527AAB
:1025C00002437D4B5A7204E07B4A527A82437A4B33
:1025D0005A7270477B49D831086070470146002025
:1025E000754A506820F4404008435060704700210D
:1025F000714A20321170704A82F82010012802D0EE
:1026000004280AD104E001216B4A2032117005E050
:102610000521694A2032117000E000BF00BF7047F9
:102620006949086070476449096A0143624A116256
:102630007047654944390860704730B50021002271
:10264000002400235C4D6D6805F00C0121B10429C4
:1026500005D0082923D105E05C4D056022E05B4DE3
:1026600005601FE0544D6D6805F47012524D6D68A1
:1026700005F48034022505EB92421CB9544D5543B4
:1026800005600BE04C4D6D6805F400351DB1504DF3
:102690005543056002E04D4D5543056002E04B4D4A
:1026A000056000BF00BF444D6D6805F0F0010909E9
:1026B000484D6B5C0568DD4045603F4D6D6805F435
:1026C000E061090A434D6B5C4568DD4085603A4D29
:1026D0006D6805F46051C90A3E4D6B5C4568DD408C
:1026E000C560354D6D6805F44041890B3A4D6B5C12
:1026F000C568B5FBF3F5056130BD29B12E4A5269B5
:1027000002432D4B5A6104E02B4A526982432A4B03
:102710005A61704729B1284A92690243264B9A614F
:1027200004E0254A92698243234B9A61704729B19C
:10273000214AD2690243204BDA6104E01E4AD26981
:1027400082431D4BDA61704729B11B4AD2680243AC
:10275000194BDA6004E0184AD2688243164BDA60FB
:10276000704729B1144A12690243134B1A6104E0FD
:10277000114A12698243104B1A617047124940395D
:10278000086070470F49C86470470B49C8717047AB
:102790000948406A40F08070074948627047014626
:1027A0000020054A92680A400AB1012000E000209A
:1027B0007047014988727047001002400000FFF81E
:1027C000FFFFF6FE000042428004424200127A00FF
:1027D00000093D00340000204400002010B50446EC
:1027E000FB48844209D101218803FFF7ADFF002196
:1027F0004FF48040FFF7A8FF32E0F648844209D149
:1028000001214804FFF7ADFF00214FF40030FFF72E
:10281000A8FF25E0F048844209D101218804FFF790
:10282000A0FF00214FF48020FFF79BFF18E0EB484A
:10283000844209D10121C804FFF793FF00214FF41E
:102840000020FFF78EFF0BE0E548844208D101210C
:102850000805FFF786FF00214FF48010FFF781FF86
:1028600010BD2DE9F04786B005460E460024A2466D
:1028700000BFA1460027B08900B100BF2F462C8AB7
:102880004CF6FF700440F08804432C82AC894EF66D
:10289000F3100440B0883189084371890843044328
:1028A000AC81AC8A4FF6FF400440B0890443AC824F
:1028B00001A8FFF7C2FEC648874202D1DDF810A08A
:1028C00001E0DDF80CA0A88900F4004040B10AEB5B
:1028D000CA0000EB0A1031684900B0FBF1F807E0CC
:1028E0000AEBCA0000EB0A1031688900B0FBF1F86E
:1028F0006420B8FBF0F004012009642101FB108979
:10290000A88900F4004040B1322000EBC900B0FBC0
:10291000F1F000F00700044308E0322000EB09105A
:102920006421B0FBF1F000F00F0004432C8106B0ED
:10293000BDE8F0874FF41651016000218180C1800D
:1029400001810C21418100218181704710B502462F
:102950000020108A4FF2FF0318400B884C88234355
:102960008C882343CC8823431843108210BD002158
:10297000018041808180C180704721B1828942F409
:102980000052828104E082894DF6FF731A408281F1
:102990007047F0B50346002400260025002040F6CD
:1029A0006A17B94200D100BF1846C1F3421401F0C2
:1029B0001F06012707FA06F5012C01D10C3004E0AF
:1029C000022C01D1103000E014301AB107682F43F7
:1029D000076002E00768AF430760F0BD1AB1838A61
:1029E0000B43838202E0838A8B4383827047028A8F
:1029F0004FF6F0731A400282028A0A43028270473D
:102A000082894FF2FF731A40828182890A43828150
:102A1000704721B1828942F00202828104E08289FA
:102A20004FF6FD731A4082817047028A4FF6DF73BA
:102A30001A400282028A0A430282704721B1028A46
:102A400042F48042028204E0028A4BF6FF731A408D
:102A500002827047C1F3080282807047014688886D
:102A6000C0F308007047818941F0010181817047FE
:102A7000028BD2B20283028B42EA012202837047A8
:102A8000028B02F47F420283028B0A430283704767
:102A900021B1828A42F02002828204E0828A4FF6CB
:102AA000DF731A408282704721B1828A42F010029D
:102AB000828204E0828A4FF6EF731A408282704766
:102AC00021B1828A42F00802828204E0828A4FF6B3
:102AD000F7731A408282704721B1828942F4004222
:102AE000828103E08289C2F30E028281704721B1A4
:102AF000828A42F40062828204E0828A4FF2FF738B
:102B00001A4082827047828A4FF6FB731A40828293
:102B1000828A0A438282704721B1828A42F002028D
:102B2000828204E0828A4FF6FD731A4082827047E7
:102B300002460020B1F5007F00D100BF13880B4092
:102B40000BB1012000E00020704701F40072B2F5E3
:102B5000007F00D100BFCA430280704770B50246B3
:102B6000002400230025002040F66A16B14200D15F
:102B700000BFC1F3421501F01F03012606FA03F35B
:102B8000012D02D19689334006E0022D02D1168A2A
:102B9000334001E0968A33400C12012606FA04F411
:102BA0001688344013B10CB1012000E0002070BD44
:102BB00010B50022002340F66A14A14200D100BFE4
:102BC0000A1201249440A3B2DC43048010BD00002B
:102BD000003801400044004000480040004C0040E4
:102BE0000050004031490143314A1160704770B5CF
:102BF000002100230F22C47804B32D4C246804F470
:102C0000E064C4F5E064210AC1F10403CA404478D9
:102C100004FA03F18478144021430901254C067815
:102C2000A155047804F01F050124AC4005786D110E
:102C3000AD0005F1E025C5F8004109E0047804F095
:102C40001F050124AC401C4D0678761145F826403E
:102C500070BD1A4A0A400243154B1B1F1A60704789
:102C600039B1134A121D12680243114B1B1D1A6021
:102C700006E00F4A121D126882430D4B1B1D1A609D
:102C80007047042808D14FF0E021096941F00401A0
:102C90004FF0E022116107E04FF0E021096921F0D7
:102CA00004014FF0E0221161704700000000FA05B6
:102CB0000CED00E000E400E080E100E080FFFF1F99
:102CC00010B50446FA48844208D101214015FFF7A7
:102CD0003BFD00216015FFF737FD17E0F548844202
:102CE00008D101210015FFF72FFD00212015FFF766
:102CF0002BFD0BE0F048844208D10121C803FFF707
:102D000023FD00214FF40040FFF71EFD10BD30B53C
:102D10000246002000235068E84C20400D790C68E2
:102D200044EA0524204350609068E54C2040D1E9F6
:102D300002542C434D7944EA450420439060D06A04
:102D400020F470000C7C641EE4B2234340EA03507C
:102D5000D06230BD00210160017141718160C160AC
:102D600001210174704721B1826842F00102826042
:102D700003E0826822F001028260704721B182681C
:102D800042F48072826003E0826822F48072826082
:102D9000704710B50023CBB21AB144681C4344609D
:102DA00002E044689C43446010BD816841F0080122
:102DB00081607047014600208A6802F008020AB16B
:102DC000012000E000207047816841F0040181602B
:102DD0007047014600208A6802F004020AB101200F
:102DE00000E00020704721B1826842F4A0028260B6
:102DF00003E0826822F4A00282607047014600204E
:102E00008A6802F480020AB1012000E000207047C5
:102E100010B50A4600210023416821F46041531E89
:102E200041EA4331416010BD21B1426842F4006281
:102E3000426003E0426822F4006242607047F0B5ED
:102E400004460D4600200021092D11DDE068A5F1A2
:102E50000A0606EB4607072606FA07F18843A5F19E
:102E60000A0606EB460603FA06F10843E0600CE0AA
:102E7000206905EB4507072606FA07F1884305EBAD
:102E8000450603FA06F108432061072A0FDA606B52
:102E9000561E06EB86071F2606FA07F18843561EC4
:102EA00006EB860605FA06F10843606322E00D2A68
:102EB0000FDA206BD61F06EB86071F2606FA07F1EE
:102EC0008843D61F06EB860605FA06F10843206301
:102ED00010E0E06AA2F10D0606EB86071F2606FA4F
:102EE00007F18843A2F10D0606EB860605FA06F106
:102EF0000843E062F0BD21B1826842F48012826032
:102F000003E0826822F48012826070470146C86C38
:102F100080B2704766484C300068704721B1426803
:102F200042F48062426003E0426822F480624260C0
:102F3000704721B1426842F48052426003E0426827
:102F400022F48052426070470A460021816821F4D1
:102F5000E04111438160704721B1826842F4004230
:102F6000826003E0826822F400428260704721B1EF
:102F7000826842F40212826003E0826822F4021244
:102F800082607047014600208A6802F400120AB18C
:102F9000012000E000207047F0B5044615460020EF
:102FA00000220026092911DDE068A1F10A0707EBDC
:102FB000470C072707FA0CF29043A1F10A0707EB29
:102FC000470703FA07F21043E0600CE0206901EBC9
:102FD000410C072707FA0CF2904301EB410703FA73
:102FE00007F210432061A06BC0F30156EF1C06F1FD
:102FF000010CA7EB0C0707EB870C1F2707FA0CF255
:103000009043EF1C06F1010CA7EB0C0707EB8707B9
:1030100001FA07F21043A063F0BD10B50A46002183
:103020000023816B21F44011531E41EA0351816357
:1030300010BD08B5002300930090009B0B44009343
:10304000009B1A6008BD08B502460020009000925F
:1030500001F12800009B184400900098006880B29D
:1030600008BD0A4600214168164B194011434160D2
:1030700070474162826270470A460021416821F030
:103080001F0111434160704740B109490831096887
:1030900041F40001064A0832116007E00449083192
:1030A000096821F40001024A0832116070470000EB
:1030B0000024014000280140003C0140FFFEF0FFD9
:1030C000FDF7F1FFFFFD3FFF0246002013680B40B4
:1030D0000BB1012000E000207047CA430260704736
:1030E00070B502460020002300240B125568CEB2B2
:1030F00005EA060415681D4015B10CB1012000E079
:10310000002070BD00220A12D34303607047000004
:1031100010B50446FE48844208D10121C014FFF7CF
:1031200013FB0021E014FFF70FFBC4E0B4F1804F64
:1031300008D101210846FFF714FB00210120FFF709
:1031400010FBB8E0F348844208D101210220FFF7C8
:1031500008FB00210220FFF704FBACE0EE488442AC
:1031600008D101210420FFF7FCFA00210420FFF719
:10317000F8FAA0E0E948844208D101210820FFF7CD
:10318000F0FA00210820FFF7ECFA94E0E4488442CA
:1031900008D101211020FFF7E4FA00211020FFF7E9
:1031A000E0FA88E0DF48844208D101212020FFF7BF
:1031B000D8FA00212020FFF7D4FA7CE0DA488442D4
:1031C00008D101214014FFF7BFFA00216014FFF776
:1031D000BBFA70E0D548844209D10121C804FFF749
:1031E000B3FA00214FF40020FFF7AEFA63E0D048B5
:1031F000844209D101210805FFF7A6FA00214FF406
:103200008010FFF7A1FA56E0CA48844209D1012193
:103210004805FFF799FA00214FF40010FFF794FAE0
:1032200049E0C548844208D101214020FFF799FABE
:1032300000214020FFF795FA3DE0C048844208D1C4
:1032400001218020FFF78DFA00218020FFF789FA05
:1032500031E0BB48844208D101218015FFF781FA93
:103260000021A015FFF77DFA25E0B648844209D178
:1032700001210804FFF768FA00214FF48030FFF7BE
:1032800063FA18E0B048844209D101214804FFF7ED
:103290005BFA00214FF40030FFF756FA0BE0AB4821
:1032A000844208D101218804FFF74EFA00214FF42F
:1032B0008020FFF749FA10BD00220288944B984203
:1032C0000ED0994B98420BD0B0F1804F08D0914B63
:1032D000984205D0904B984202D0904B984204D12E
:1032E0004FF68F731A404B881A438D4B984207D084
:1032F0008C4B984204D04FF6FF431A40CB881A43B8
:1033000002808B8883850B880385814B98420BD084
:10331000854B984208D08B4B984205D08A4B9842F7
:1033200002D08A4B984201D10B7A03860123838213
:10333000704770B5002400220023058C4FF6FE76FE
:1033400035400584028C8388048B4FF68F752C40A2
:10335000B51E2C400D882C43751E2A400D892A432A
:103360004D882A436A4DA8420BD06F4DA84208D021
:10337000744DA84205D0744DA84202D0734DA842A6
:1033800013D14FF6F7752A404D892A434FF6FB7546
:103390002A408D882A434FF6FF652B404FF6FF5594
:1033A0002B408D892B43CD892B4383800483CD888B
:1033B0008586028470BD70B5002400220023058C30
:1033C0004FF6EF7635400584028C8388048B48F6EF
:1033D000FF752C404FF6FF452C400D884FF6FF76C9
:1033E00006EA05252C434FF6DF752A400D8906EACB
:1033F00005152A434D8806EA05152A43444DA8427F
:1034000002D0494DA8421DD14FF67F752A404D8903
:103410004FF6FF7606EA05152A434FF6BF752A4098
:103420008D8806EA05152A434FF6FF352B404FF2EB
:10343000FF752B408D8906EA85052B43CD8906EA69
:1034400085052B4383800483CD880587028470BD66
:1034500070B5002400220023058C4FF6FF6635402E
:103460000584028C8388848B4FF68F752C404FF631
:10347000FC752C400D882C434FF6FF552A400D89D2
:103480004FF6FF7606EA05252A434D8806EA05250C
:103490002A431F4DA84202D0234DA8421DD14FF20E
:1034A000FF752A404D894FF6FF7606EA05252A4327
:1034B0004FF6FF352A408D8806EA05252A434EF649
:1034C000FF752B404DF6FF752B408D8906EA0515DB
:1034D0002B43CD8906EA05152B4383808483CD8851
:1034E0008587028470BD70B5002200230024058CFE
:1034F0004EF6FF7635400584038C8488828B48F62F
:10350000FF752A404FF6FF452A400D8820E0000055
:10351000002C01400004004000080040000C004066
:10352000001000400014004000340140004C0140F5
:10353000005001400054014000180040001C0040B1
:10354000002000400040014000440140004801408C
:103550004FF6FF7606EA05252A434DF6FF752B4008
:103560000D8906EA05352B434D8806EA05352B43C0
:10357000FA4DA84202D0FA4DA84208D14BF6FF7589
:103580002C408D894FF6FF7606EA85152C43848002
:103590008283CD88A0F84050038470BD828B4FF2A7
:1035A000FF331A408283828B4FF6FF7303EA0123B5
:1035B0001A4382837047F0B50C461546002200215D
:1035C0000026078C4EF6FF7C07EA0C070784828BE7
:1035D000018C4FF6FF7707EA043640F6FF473A4082
:1035E0004FF6FF7707EA05273A434FF6FF7707EADA
:1035F00003373A43D94FB8420ED0D94FB8420BD017
:10360000B0F1804F08D0D74FB84205D0D64FB8425E
:1036100002D0D64FB84206D14DF6FF77394046F476
:103620008057394305E047F6FF57394044F4805747
:10363000394382830184F0BD828B4FF6F3731A40C5
:103640008283828B0A4382837047F0B50C4615460D
:10365000002200210026078C4FF6FF6C07EA0C07BA
:103660000784828B018C4FF6FF7707EA04264FF61A
:103670000C773A404FF6FF7707EA03172F433A4398
:10368000B64FB8420ED0B64FB8420BD0B0F1804F13
:1036900008D0B44FB84205D0B34FB84202D0B34FB0
:1036A000B84206D14FF6FF57394046F48077394388
:1036B00005E04FF2FF57394044F480773943828365
:1036C0000184F0BD028B4FF2FF331A400283028B5C
:1036D0004FF6FF7303EA01231A4302837047F0B5E4
:1036E0000C461546002200210026078C4FF6EF7C81
:1036F00007EA0C070784028B018C4FF6FF7707EA75
:10370000041640F6FF473A404FF6FF7707EA0337C3
:103710003A434FF6FF7707EA05273A438F4FB842FF
:103720000ED08F4FB8420BD0B0F1804F08D08D4FE4
:10373000B84205D08C4FB84202D08C4FB84206D167
:103740004FF6DF77394046F01007394305E04FF672
:103750005F77394044F01007394302830184F0BD9C
:10376000028B4FF6F3731A400283028B0A430283E3
:103770007047F0B50C46154600220021068C4FF626
:10378000FE773E400684028B018C4FF60C76324069
:103790007E1C06EA03162E433243704EB0420ED012
:1037A0006F4EB0420BD0B0F1804F08D06D4EB0429A
:1037B00005D06D4EB04202D06C4EB04206D14FF6ED
:1037C000FD76314044F00106314305E04FF6F576D1
:1037D000314044F00106314302830184F0BD70B5ED
:1037E00005460C465D4885420ED05D4885420BD0AB
:1037F000B5F1804F08D05B48854205D05A488542D4
:1038000002D05A48854200D100E000BF208850B95C
:103810002389A28861882846FFF7ABFFE188284604
:10382000FFF79EFF25E0208804280AD12389A2887B
:1038300061882846FFF753FFE1882846FFF742FFDB
:1038400017E0208808280AD12389A28861882846A1
:10385000FFF7FBFEE1882846FFF7EEFE09E023892B
:10386000A28861882846FFF7A6FEE1882846FFF770
:1038700095FE70BD2DE9F04105460C460026012756
:10388000608808B9022600E00026A088012801D13E
:10389000022700E001272088A0B92389A288618837
:1038A0002846FFF766FFE1882846FFF759FF23897E
:1038B0003A4631462846FFF712FFE1882846FFF7CF
:1038C00001FF13E02389A28861882846FFF707FFDC
:1038D000E1882846FFF7F6FE23893A463146284616
:1038E000FFF747FFE1882846FFF73AFFBDE8F08180
:1038F0000A884B881A438B881A43CB881A430B8952
:103900001A434B891A438B891A43A0F84420704705
:103910004FF6FF71818000210180C18041800172DA
:1039200070470021018041808180C18001814181F7
:103930008181C18170470021018041800121818006
:103940000021C18001817047002101804180818078
:10395000C18001814181818170470000002C0140BC
:10396000003401400004004000080040000C00400A
:1039700021B1028842F00102028004E002884FF681
:10398000FE731A400280704731B1B0F8442042F40F
:103990000042A0F8442005E0B0F84420C2F30E0233
:1039A000A0F8442070471AB183890B43838102E059
:1039B00083898B43838170478182704741EA020388
:1039C000A0F8483070471AB183890B43838102E025
:1039D00083898B438381704701894FF6F8721140C8
:1039E000018170470A46002101894FF68F73194003
:1039F00011430181704730B504460D4629462046E3
:103A0000FFF7F0FF208940F00700208130BD2DE94D
:103A1000F04104460D4616461F46602D06D13B4632
:103A2000012231462046FFF75AFE05E03B460122BF
:103A300031462046FFF79DFE29462046FFF7D2FF7C
:103A4000208940F007002081BDE8F08130B50C46A8
:103A500000210189C9B24FF6FF7505EA0325154318
:103A600025432943018130BD2DE9F04105460E462D
:103A700017469846002443463A4631462846FFF703
:103A8000E5FF2C894FF6F870044044F007044FF628
:103A90008F70044044F070042C81BDE8F081F0B5D3
:103AA00004460D4616461F463B46324629462046EA
:103AB000FFF7CCFF208940F480402081F0BD0185D4
:103AC000828270470A46002101884FF68F731940A1
:103AD000114301807047F0B50C4615461E46002183
:103AE000002200230189028B038C4FF6F8773940BE
:103AF00021434FF6FC473A4040F201173A434FF654
:103B0000DD773B404FF6FF7707EA06172F433B432D
:103B1000018102830384F0BD0A460021018B4FF628
:103B20008F7319401143018370470A460021018BAE
:103B300048F6FF7319404FF6FF7303EA0223194357
:103B4000018370470A460021818B4FF68F7319401D
:103B50001143818370470A460021818B48F6FF7329
:103B600019404FF6FF7303EA02231943818370471C
:103B700021B1028842F08002028004E002884FF600
:103B80007F731A400280704721B1828842F004029C
:103B9000828004E082884FF6FB731A40828070476F
:103BA00021B1828842F00802828004E082884FF6C8
:103BB000F7731A408280704721B1828842F0010277
:103BC000828004E082884FF6FE731A40828070473C
:103BD0000A460021018B4FF6F77319401143018308
:103BE00070470A460021018B4FF2FF7319404FF6D0
:103BF000FF7303EA02231943018370470A46002139
:103C0000818B4FF6F77319401143818370470A4641
:103C10000021818B4FF2FF7319404FF6FF7303EAC7
:103C200002231943818370470A460021018B4FF616
:103C3000FB7319401143018370470A460021018B31
:103C40004FF6FF3319404FF6FF7303EA022319437F
:103C5000018370470A460021818B4FF6FB731940A0
:103C60001143818370470A460021818B4FF6FF3351
:103C700019404FF6FF7303EA02231943818370470B
:103C80000A460021018B4FF67F73194011430183CF
:103C900070470A460021018BC1F30E014FF6FF73F6
:103CA00003EA02231943018370470A460021818BEE
:103CB0004FF67F7319401143818370470A460021F4
:103CC000818BC1F30E014FF6FF7303EA0223194300
:103CD000818370470A460021018C4FF6FD7319401D
:103CE0001143018470470A460021018C4FF6F77397
:103CF00019401143018470470A460021018C4FF698
:103D0000DF7319404FF6FF7303EA0213194301846E
:103D100070470A460021018C4FF67F7319404FF619
:103D2000FF7303EA02131943018470470A46002116
:103D3000018C4FF6FF5319404FF6FF7303EA02233D
:103D40001943018470470A460021018C4FF2FF732A
:103D500019404FF6FF7303EA0223194301847047A9
:103D60000A460021018C4DF6FF7319404FF6FF7390
:103D700003EA023319430184704730B5002301245C
:103D80008C40A3B2048C9C430484048C02FA01F599
:103D9000ADB22C43048430BD30B5002304248C40E4
:103DA000A3B2048C9C430484048C02FA01F5ADB2E6
:103DB0002C43048430BD70B503460020002418460F
:103DC000183001258D40ACB21D8CA5431D8409B16E
:103DD000082909D100EB6100056825F07005056030
:103DE0000568154305600EE00D1FC5F34E05284418
:103DF000056825F4E045056005684FF6FF7606EA9C
:103E000002263543056070BD21B1028842F00202EE
:103E1000028004E002884FF6FD731A40028070476A
:103E200021B1028842F00402028004E002884FF6C9
:103E3000FB731A400280704721B1828842F08002F1
:103E4000828004E082884FF67F731A408280704738
:103E500002884FF6F7731A40028002880A430280F4
:103E6000704782884FF68F731A40828082880A4397
:103E70008280704702894FF6F8731A4002810289E6
:103E80000A430281704702894FF67F731A4002810C
:103E900002890A4302817047818470478185704797
:103EA000818670470187704781877047A0F840106E
:103EB000704702884FF6FF431A40028002880A4387
:103EC000028070470146888E70470146088F704710
:103ED0000146888F70470146B1F84000704701469F
:103EE000888C70470146088D704702460020138A6F
:103EF0000B400BB1012000E000207047CA43028252
:103F0000704730B50246002000230024158A05EAD8
:103F10000103958905EA010413B10CB1012000E009
:103F2000002030BDCA4302827047D2B201E000F8DF
:103F3000012B491EFBD270470022F6E710B513464D
:103F40000A4604461946FFF7F0FF204610BD80EAF6
:103F5000010210B502F00043400022D04A001FD0F9
:103F6000010E01EB1261C0F35600C2F3560240F499
:103F7000000042F40002A0FB022000047F39140478
:103F800000D0401C50EA124001D44000491EC2B289
:103F90000C0604EBD010401C4008802A02D003E03D
:103FA000002010BD20F00100002900DA0020184395
:103FB00010BD2DE9FE4F81EA030404F0004421F016
:103FC000004100944FF0000B23F0004350EA01043D
:103FD0005ED052EA03045BD0C3F30A54C1F30A551E
:103FE0002C44A4F2F3340194A0FB0254C1F3130156
:103FF00041F48011C3F3130343F4801301FB024423
:1040000000FB034E840A970A44EA815447EA835727
:10401000A4FB076802958D0A05FB07854FEA932CE0
:1040200004FB0C542705029D4FEA065847EA163751
:10403000B5EB08056EEB070C870E920E47EA811769
:1040400042EA8312A7FB0201B6EB0B0164EB00040A
:104050002B0D43EA0C335E1844EB1C50DA465146F4
:10406000E7FB0201C5F313044FEA0B3343EA145391
:104070004FEA0432019C43EA0603A4F10C040294C3
:10408000009CCDE900B400F07AF903B0BDE8F08FF0
:1040900000200146F9E72DE9F04D81EA030404F020
:1040A000004B21F0004514464FF0000A23F0004178
:1040B00050EA050220D054EA01021DD0C5F30A5788
:1040C0000246C5F31303C1F31300C1F30A5640F4CB
:1040D000801543F48013A7EB0608101BD64608F2A0
:1040E000FD3873EB050002D308F1010801E09218D6
:1040F0005B41B8F1000F03DA00200146BDE8F08D06
:1041000000204FF48011064684460EE0171B73EB27
:10411000050705D3121B63EB050306434CEA010CAC
:1041200049084FEA300092185B4150EA0107EDD18F
:1041300052EA030012D082EA040083EA0501084330
:1041400005D0101BAB4106D20122002306E000225D
:104150004FF0004302E06FF0010253101AEB06002B
:104160004CEB085110EB0A0041EB0B01BDE8F04DA0
:1041700000F0F6B896230022114600F0C3B820F0F4
:104180000040C10DC0F3160040F400007F2901DAA1
:1041900000207047962903DCC1F19601C8407047A2
:1041A00096398840704700F0004230F000400AD055
:1041B000C10D01F56071C0F3160042EA0151C20859
:1041C00040071143704700200146704730B5041E78
:1041D00071F1000404DB4FF00044404264EB010144
:1041E000141E73F1000405DB1C464FF000435242DD
:1041F00063EB04038B4208BF824230BD30B5041E1E
:1042000071F1000404DB4FF00044404264EB010113
:10421000141E73F1000405DB1C464FF000435242AC
:1042200063EB0403994208BF904230BD01F00043A4
:1042300030B421F0004150EA010206D00A0DA2F587
:104240006072C1F31301002A02DC30BC0020704709
:10425000440F44EAC104C100E01830BC00EBC25076
:1042600000F047B830B50B4601460020202201245B
:1042700009E021FA02F59D4205D303FA02F5491B34
:1042800004FA02F52844151EA2F10102F1DC30BD4A
:104290002DE9F05F0546002092469B46884606467B
:1042A000814640241BE0284641464746224600F00E
:1042B00094F953465A46C01A914110D311461846F4
:1042C000224600F07BF92D1A67EB01084F46224683
:1042D0000120002100F072F917EB00094E41201E69
:1042E000A4F10104DFDC484631462A464346BDE8D6
:1042F000F09F0029A8BF7047401C490008BF20F06C
:104300000100704710B4B0FA80FC00FA0CF050EADB
:10431000010404BF10BC704749B1CCF1200421FA5C
:1043200004F411FA0CF118BF012121430843A3EB57
:104330000C01CB1D4FEA00614FEA102042BF002064
:1043400010BC704700EBC35010440029A4BF10BC40
:104350007047401C490008BF20F0010010BC7047A6
:1043600010B5141E73F1000408DA401C41F100017D
:1043700092185B411A4301D120F0010010BD2DE9D4
:10438000F04D92469B4611B1B1FA81F202E0B0FACB
:1043900080F22032904600F011F904460F4640EAC0
:1043A0000A0041EA0B0153465A46084313D011460E
:1043B00053EA010019D0C8F14002504600F00DF94F
:1043C00005460E4650465946424600F0F7F8084367
:1043D00005D0012004E020463946BDE8F08D0020DC
:1043E000054346EAE0762C4337430A986305E40A1E
:1043F000A0EB08000022FD0A44EA47540A3002D527
:1044000000200146E9E7010510196941DDE9084589
:1044100000196941BDE8F04DA2E72DE9FE4F804645
:1044200081EA0300C00F0C46009021F0004123F008
:104430000045B8EB0200A94105D24046214690460E
:104440001C460B46024623F00040104347D0270D80
:10445000C7F30A00C3F30A510290401A01904028A2
:104460006BDAC3F3130040F4801B0098924620B12E
:104470000023D2EB030A63EB0B0B01985946C0F102
:104480004002504600F09AF806460D4650465946FE
:10449000019A00F0B2F810EB08006141002487EAAD
:1044A000115284EAE7731A4340D0009A62B3019A2A
:1044B000012A4FEA075215DC001B61EB02014FF0A5
:1044C000004202EA0752CDE90042001C41F580118A
:1044D00032462B46FFF753FF03B0BDE8F08F40464E
:1044E0002146F9E7001B61EB0201001C41F5801336
:1044F00000185B412018A2F5001747EB030140EAC2
:10450000D570B6196D4111E06D084FEA360645EADF
:10451000C0754FEA0752001B61EB0201001C41F518
:10452000801149084FEA30000019514132462B46AC
:1045300003B0BDE8F04FFFF713BF00980122400021
:104540000023D0EB020263EBE073009821464FEAB0
:10455000E074B8EB000061EB0401E9E783F000438D
:104560005BE781F0004158E7C1F30A52C1F3130140
:1045700040F2FF3341F480119A4202DA00200146F2
:10458000704740F233439A42A2F2334202DC524275
:1045900000F023B800F012B8064C074D06E0E068C2
:1045A00040F0010394E8070098471034AC42F6D37A
:1045B000FBF7C2FDF44E0008144F0008202A04DB6C
:1045C000203A00FA02F1002070479140C2F1200326
:1045D00020FA03F3194390407047202A04DB203A65
:1045E00021FA02F00021704721FA02F3D040C2F113
:1045F00020029140084319467047202A06DBCB175A
:10460000203A41FA02F043EAE07306E041FA02F38D
:10461000D040C2F120029140084319467047000083
:104620000FB4054B10B503A9044A029800F0CAF86C
:1046300010BC5DF814FB00005F1B00082800002080
:1046400002E008C8121F08C1002AFAD1704770475B
:10465000002001E001C1121F002AFBD170470000B9
:104660002DE9FF5FDDE90220010DDDF838B00243DE
:1046700018D044F61050A1F2FF3141430D140F98A9
:10468000012820D0A5EB0B00401C5FEA000A4FF088
:104690000004474EDFF81C91A046504616D5CAF1DB
:1046A000000728E00F98012443A2012808D0002128
:1046B00000980F9BC0E90021C0E90243BDE8FF9FBD
:1046C0006FEA0B01F4E7CBF10000DEE7074612E0EA
:1046D000F80707D02246334640464946FFF769FCB3
:1046E000804689462246334610461946FFF761FC4C
:1046F00004460E467F10002FEAD1DDE90201BAF12F
:10470000000F42464B4602DAFFF753FC01E0FFF789
:10471000C2FC04460E460022284BFFF76FFD03D86B
:104720004FF0FF30014607E00022254B204631467E
:10473000FFF773FEFFF718FF102409E0002C0ADBD7
:104740000A220023FFF7A4FD019B30321A55641E94
:1047500050EA0102F2D1641C019AC4F1110314441D
:104760000F9A012A03D0012208430DD10AE0084321
:1047700004D000204FF0110B0F9080E7A3EB0B0546
:104780006D1E0DE05B4504DD4FF0000205F10105F3
:1047900004E003DA4FF00002A5F10105002AECD095
:1047A00000980F99C0E90231C0E9004586E7000092
:1047B000000024400000F03F300000000000F04303
:1047C0000000E03F2DE9FF4F95B09B468946064625
:1047D00000250FE2252877D100242746F84A012139
:1047E000059400E0044316F8013F203B01FA03F072
:1047F0001042F7D130782A2811D06FF02F0330788B
:10480000A0F13002092A16D8059A44F0020402EBFE
:10481000820203EB42021044761C0590EFE759F840
:10482000042B0592002A03DA504244F40054059008
:1048300044F00204761C30782E2816D116F8010FA9
:1048400044F004042A280DD06FF02F023078A0F134
:104850003003092B09D807EB870302EB4303C71882
:10486000761CF3E759F8047B761C30786C280FD05F
:1048700006DC4C2817D068280DD06A2814D104E033
:10488000742810D07A280FD10DE044F400140AE007
:1048900044F4801401E044F440147278824202D15E
:1048A00004F58014761C761C307866280BD013DC57
:1048B000582877D009DC002875D04528F6D046283E
:1048C000F4D047281AD19DE118E0632835D0642838
:1048D00079D0652812D195E1702873D008DC67285B
:1048E000F1D069286FD06E280DD06F2806D1B5E0C1
:1048F00073282CD0752875D0782874D05A4617990B
:1049000090476D1C75E1C4F30250022809D00328BA
:104910000DD0D9F8001004280DD00D6009F104095C
:1049200067E1D9F80010EA17C1E90052F6E7D9F8B3
:1049300000100D80F2E70D70F0E719F8041B8DF8F8
:10494000001000208DF80100EA46012003E059F82C
:1049500004AB4FF0FF3061074FF0000102D40DE0CF
:1049600008F101018846B9420FDA8045F8DB1AF8F0
:1049700008100029F4D108E008F1010188468142BD
:10498000FADB1AF808100029F6D105985B46A0EB6F
:10499000080721463846179A00F094FA284400EB9D
:1049A000080507E04DE029E10DE01AF8010B5A4631
:1049B00017999047B8F10108F7D25B46214638466F
:1049C000179A13E142E00A220092C4F302524FF018
:1049D000000A022A08D059F804CB032A4FEAEC71E6
:1049E0000AD00DE029E02AE009F1070121F00702D1
:1049F000F2E802C1914609E00FFA8CFC4FEAEC7133
:104A0000042A03D14FFA8CFC4FEAEC71002907DA33
:104A10000A460021DCF1000C61EB02012D2202E0CC
:104A2000220504D52B228DF80420012203E0E207A1
:104A300001D02022F7E7904659E00A2102E0102237
:104A40000DE010214FF0000A00910BE010224FF012
:104A5000000A44F004040827009203E008224FF003
:104A6000000A0092C4F30252022A05D059F804CB7E
:104A70000021032A08D009E009F1070121F007020B
:104A8000F2E802C1914605E01FFA8CFC042A01D12C
:104A90000CF0FF0C4FF00008220728D5702806D034
:104AA000009B83F0100353EA0A0305D00EE0402276
:104AB0008DF80420012208E05CEA010206D03022D1
:104AC0008DF804208DF8050002229046009B83F0AB
:104AD000080353EA0A030AD15CEA010201D1620722
:104AE00005D530228DF804204FF001087F1E58288C
:104AF00004D034A003900EA802900DE036A0F9E790
:104B000053466046009AFFF7C3FB84460398825CD5
:104B10000298401E029002705CEA0100F0D10298F7
:104B200006A9081A00F1200A600702D524F480348F
:104B300000E00127574502DDA7EB0A0000E0002056
:104B400000EB0A01009005984144401A0590E003EB
:104B500006D45B462146179A059800F0B3F9054440
:104B6000002706E001A85A46C05D179990476D1CC2
:104B70007F1C4745F6DBE0030CD55B462146179AC0
:104B8000059800F09FF9054404E030205A46179933
:104B900090476D1C0099481E00900029F5DC08E044
:104BA000029802995A460078491C02911799904739
:104BB0006D1CBAF10001AAF1010AF1DC65E1000007
:104BC00009280100303132333435363738396162E3
:104BD00063646566000000003031323334353637A7
:104BE00038394142434445460000000000F058F97E
:104BF0000544761C307800287FF4ECAD19B02846C7
:104C0000BDE8F08F620700D4062709F1070222F001
:104C1000070CFCE80223E14603F000485FEA080CB9
:104C200002D00FF2702C0DE05FEA045C02D50FF2A7
:104C3000682C07E05FEAC47C02D00FF2602C01E030
:104C4000AFF2700C4FF0FF3823F00043CDF850C0A6
:104C500065280CD006DC452809D046281DD04728F9
:104C60003DD13DE0662818D067287ED138E000218C
:104C7000112F01DB112000E0781CCDE9000106A90D
:104C80000EA8FFF7EDFCDDE90F010E9A039100215C
:104C9000009207F1010A04914DE04FF000400097A7
:104CA000CDE9011006A90EA8FFF7DAFCDDE90F0235
:104CB00003920E9B11990022DDF80CA00093049240
:104CC00011B9791C00EB010AB7EB0A0004D4C0F15A
:104CD000FF3007F1010A0490AAEB0700019044E0BD
:104CE000012F00DA01270021112F01DD112000E042
:104CF0003846CDE9000106A90EA8FFF7B1FCDDE9B1
:104D00000F010E9A0391002104910092BA462107E7
:104D10000CD40399514500DA8A46BAF1010F05DD3A
:104D2000009AAAF10101515C302908D0B84202DA98
:104D300010F1040F06DA0121CDE9011015E0AAF106
:104D40000101E9E7002805DC049901440491AAEB7C
:104D5000000102E0411C514500DD8A460499401AD9
:104D6000401C01904FF000400290200704D40198AD
:104D7000504501DBCDF8048000208DF84F000298EB
:104D80000DF14F07B0F1004F25D02B200E90029867
:104D90004FF0020800280CDA404202902D200E90BD
:104DA00007E00A210298FFF75DFA3031029007F818
:104DB000011DB8F10001A8F10108F2DC02980028F9
:104DC000EFD1791E0E980870307800F0200040F086
:104DD000450007F8020D12A8C01B00F1070814983F
:104DE000007800B1012000EB0A01019801EBE071AD
:104DF00005984144401A401E0590E00306D45B46E6
:104E00002146179A059800F05DF80544149800783B
:104E100018B15A46179990476D1CE00324D55B469C
:104E20002146179A059800F04DF805441CE00498B7
:104E3000002807DBDDE90301884203DD0098405CC0
:104E4000179901E0179930205A469047049805F1C8
:104E50000105401C04900198401E019004D12E20B1
:104E60005A46179990476D1CBAF10001AAF1010A40
:104E7000DDDC05E017F8010B5A46179990476D1CC9
:104E8000B8F10001A8F10108F4DC5B462146179A4D
:104E90000598ABE62D0000002B000000200000006C
:104EA0002DE9F041044600251E461746880404D427
:104EB00005E039462020B0476D1C641EF9D5284610
:104EC000BDE8F0812DE9F041044600251E469046DC
:104ED000C80301D5302700E02027880404D505E069
:104EE00041463846B0476D1C641EF9D52846BDE8DA
:104EF000F0810000144F000800000020480000006E
:104F0000404600085C4F000848000020580600009A
:104F1000504600080000010000A24A040000000002
:104F200000000000010203040607080946460100CC
:104F30000000000000000000000000000000000071
:104F40000000000000000000000000000102030457
:0C4F500001020304060708090204060819
:0400000508000131BD
:00000001FF
